:020000040800F2
:10000000E09D0020A9020008AD6800088F390008B3
:10001000AB680008952100080D6C00080000000086
:10002000000000000000000000000000B1680008AF
:10003000A922000800000000AF680008B3680008AB
:10004000C3020008C3020008C3020008C30200087C
:10005000C3020008C3020008C3020008C30200086C
:10006000C3020008C3020008C3020008C30200085C
:10007000C3020008C3020008C3020008C30200084C
:10008000C3020008C3020008C3020008C30200083C
:10009000C3020008C3020008C3020008C30200082C
:1000A000C3020008C3020008C3020008C30200081C
:1000B000C3020008C3020008C3020008C30200080C
:1000C000C3020008C3020008C3020008C3020008FC
:1000D000C3020008016C0008C3020008C302000844
:1000E000C3020008C3020008C3020008C3020008DC
:1000F000C3020008C3020008C3020008C3020008CC
:10010000C3020008C3020008C3020008C3020008BB
:10011000C3020008C3020008C3020008C3020008AB
:10012000F9210008C3020008C3020008C302000846
:10013000C3020008C3020008C3020008C30200088B
:10014000C3020008C3020008C3020008C30200087B
:10015000C3020008C3020008C3020008C30200086B
:10016000C3020008C3020008C3020008C30200085B
:10017000C3020008C3020008C30200080000000018
:10018000C3020008C302000800F002F800F07DF886
:100190000AA090E8000C82448344AAF10107DA45E2
:1001A00001D100F072F8AFF2090EBAE80F0013F0B7
:1001B000010F18BFFB1A43F0010318470485020022
:1001C000248502000A444FF0000C10F8013B13F0A4
:1001D000070408BF10F8014B1D1108BF10F8015BA0
:1001E000641E05D010F8016B641E01F8016BF9D193
:1001F00013F0080F1EBF10F8014BAD1C0C1B09D1EA
:100200006D1E58BF01F801CBFAD505E014F8016B5B
:1002100001F8016B6D1EF9D59142D6D370470000ED
:100220000023002400250026103A28BF78C1FBD8FF
:10023000520728BF30C148BF0B60704766290BF0DA
:10024000CB81642900F06881752900F065817829E7
:1002500000F09E81732900F05486002070471FB57E
:100260000BF079F99DE8030000F072FB00F064FEEA
:100270000400002000210AF06BFCE06000F07AFF2F
:100280001FBD10B500F0DFFF10BD01F017F81146DB
:10029000FFF7E5FF09F0ECFF01F0F4F803B4FFF716
:1002A000F0FF03BC01F02CF90948804709480047DA
:1002B000FEE7FEE7FEE7FEE7FEE7FEE7FEE7FEE716
:1002C000FEE7FEE704480549054A064B7047000073
:1002D0004D69000889010008E08D0020E09D0020A4
:1002E000E0950020E095002070B5064600F014FB74
:1002F000056806F10B0020F00704B4429CBF002003
:1003000070BD2B466A68BAB11068A04210D304F1E0
:10031000080188423CBF5068586007D351681019E3
:1003200041601168091B016058601460101D70BDA8
:1003300013465268002AE7D12146284600F0F4FA15
:100340000028DED170BD70B50446051F00F0E4FA48
:100350000068002C14BF446870BD002C18BFAC426C
:100360003CBF20466468F8D301680A18AA4218BF47
:10037000456003D12A680546114401602868411987
:10038000A1421CBF6C6070BD61686960216808444F
:10039000286070BD53EA020C00F069802DE9F04B33
:1003A0004FF00006002B1FBFB3FA83F503FA05F4E4
:1003B00024FA05F65E4012BF1643B2FA82F502FA3D
:1003C00005F4C5F120051EBF22FA05FC44EA0C0421
:1003D000203556EA044C4FEA144418BF641C4FF011
:1003E00000084FF00009904271EB030C39D300294B
:1003F00019BFB1FA81F701FA07F6B0FA80F700FAEF
:1004000007F6C7F120071EBF20FA07FC46EA0C06D4
:100410002037B6FBF4FCA7EB0507103F07F01F0BD6
:10042000CBF120060CFA0BFB2CFA06F644BFB346C0
:100430000026202FA4BF5E464FF0000B5BEA060C9F
:1004400008BF4FF0010B19EB0B09ABFB027C48EB2B
:100450000608C01B06FB02CC0BFB03CC71EB0C01A6
:10046000C1E70B46024641464846BDE8F08B13B54E
:100470004FF000004FF00001AFF30080BDE81C40DA
:10048000704700000FB4044910B503AA029800F0A9
:100490003DFD10BC5DF814FBD48C00200FB41CB5DE
:1004A000074B06AA7B4469460090059800F0FFFCC4
:1004B0000020694600F00EFD1CBC5DF814FB000036
:1004C0002D0A000070B50C460546012A05D0287893
:1004D000800600D5EA69002302E0012305E05B1CE9
:1004E000934202D2E05C0028F9D1A869E618C01A4C
:1004F000A861286A184428622846AFF3008004E007
:10050000D5E9012114F8010B9047B442F8D32846ED
:10051000AFF3008070BD00002DE9F04106460024D5
:1005200010687529314616A510D0AFF30080002859
:1005300002DA404213A507E031688A0701D512A507
:1005400002E0490704D511A5012401E0AFF30080C2
:1005500000210A2206F1240709E0B0FBF2FCB0FBFF
:10056000F2F302FB1C00303078541846491C002876
:10057000F3D123462A463046BDE8F04100F029BABF
:10058000000000002D0000002B00000020000000F3
:1005900070B504460D4621461068AFF300802188EF
:1005A000090502D50F4A7A4402E00E4A7A440E3217
:1005B000002104F1240305E000F00F060009965D18
:1005C0005E54491C0028F7D120780023000704D589
:1005D000702D02D009B1022311322046BDE87040CF
:1005E00000F0F7B9827F02002DE9F0474FF0000AD2
:1005F00089460446C0F820A02046E16888470028C4
:1006000076D0252806D0D4E901219047206A401CE5
:100610002062F1E7E168204600268847C4F81CA064
:1006200005460027C4F818A02A2D09D0284606F050
:10063000A7FE38B304EB8708303DC8F8185019E01E
:1006400059F8041B204604EB87029161E168884752
:10065000012F054618D1E069002820DA26F020068F
:100660001DE0D8F8180000EB800005EB40003038A2
:10067000C8F818002046E1688847054606F080FE65
:100680000028EED1012F0AD02E2D08D12046E16896
:1006900088477F1C0546022F46F02006C4DBA06970
:1006A000002803DA404246F00106A061F00701D0BD
:1006B00026F010066C2D0AD0682D08D04C2D39D0AC
:1006C0006A2D35D0742D35D07A2D33D016E0E168FF
:1006D0002F4620468847B84205460AD16C2F27D0BE
:1006E0004FF48060E168064320468847054605E0F0
:1006F00027E06C2F1AD04FF4807006430DB3A5F19C
:100700004100192802D8203546F400664A46294699
:10071000204626604E46FFF791FD80B101280BD0A0
:10072000F61D26F0070000F1080965E74020E4E720
:100730008020D7E70020D5E706F104095CE72846CA
:1007400061E7206ABDE8F08740EA010310B59B0726
:100750000FD1042A0DD310C808C9121F9C42F8D02B
:1007600020BA19BA884201D9012010BD4FF0FF30DC
:1007700010BD1AB1D30703D0521C07E0002010BDF2
:1007800010F8013B11F8014B1B1B07D110F8013B7E
:1007900011F8014B1B1B01D1921EF1D1184610BD5F
:1007A00010B5431C02E010F8011B71B18107FAD1AA
:1007B0004FF0013202C88C1A8C4314EAC211F9D0EE
:1007C000C01A0A0603D0C01E10BDC01A10BD0A040C
:1007D00001D0801E10BD0902FCD0401E10BD10B516
:1007E000203AC0F00B80B1E81850203AA0E8185029
:1007F000B1E81850A0E81850BFF4F5AF5FEA027CEA
:1008000024BFB1E81850A0E8185044BF18C918C058
:10081000BDE810405FEA827C24BF51F8043B40F8F9
:10082000043B08BF7047D20728BF31F8023B48BFDE
:1008300011F8012B28BF20F8023B48BF00F8012B1C
:1008400070474FF0000200B5134694469646203993
:1008500022BFA0E80C50A0E80C50B1F12001BFF479
:10086000F7AF090728BFA0E80C5048BF0CC05DF8DF
:1008700004EB890028BF40F8042B08BF704748BF2D
:1008800020F8022B11F0804F18BF00F8012B7047A1
:100890004FF0013C50F8042B51F8043B9A4221D10F
:1008A000A2EB0C03934313EACC1317D150F8042B9B
:1008B00051F8043B9A4215D1A2EB0C03934313EA7F
:1008C000CC130BD150F8042B51F8043B9A4209D1B8
:1008D000A2EB0C03934313EACC13DBD04FF00000E0
:1008E000704700BFD01A01BAB1FA81F101F01801C6
:1008F00022FA01F0CB40C1F12001DBB2C0B2C01A34
:100900002CFA01F3D11A914311EAC311E6D17047D1
:10091000704770477047000000487047848D002082
:10092000704770477047704738B504460A46002044
:100930006946AFF30080002808BF38BD0246009921
:10094000204600F001FB012038BD012000F0AEBCC4
:10095000F8B5AFF30080054600200C46102000BF1C
:100960000646A819A0420DD9324669460020AFF3C9
:100970000080070008BF00F099FC0098A04218BF53
:100980000546C419FFF7C8FF05600746F01D20F0B3
:1009900007004619284600F00AF8B44208BFF8BD1F
:1009A000A21B31463868BDE8F84000F0CDBA0021FE
:1009B0000160C0E9011070471020704710B500F0C9
:1009C000BFFA006810BD10B5044600F0B9FA046023
:1009D00010BD2DE9F0470D4699469246044600F1B8
:1009E00024080168880604D5E06921F0100121601F
:1009F00000E00120A84201DD471B00E00027A169BB
:100A00007A1902EB0900081AA0612078C00602D406
:100A10002046AFF30080002608E0D4E901211AF84F
:100A200006009047206A401C761C20624E45F4DB8D
:100A30002078C0060AD52046AFF3008006E0D4E94E
:100A4000012130209047206A401C2062381EA7F107
:100A50000107F4DC07E0D4E9012118F8050090470C
:100A6000206A401C2062281EA5F10105F3DC204607
:100A7000AFF300802078000602D50220BDE8F087A1
:100A80000120FBE770472DE9FF4F0C461E464FF053
:100A9000FF378BB0D2E90001DDF860800A908A460A
:100AA000C1F30A5505B93D46002108464FF0000044
:100AB000BAF1000F00F4400005DA00EB80004FF4BB
:100AC000400101EA50004FEA9059B9F1010F00DDF1
:100AD000B9460A9850EA4A000ED044F61050A5F2E2
:100AE000FF3545432F14B8F1000F1ED07542291E63
:100AF0001EDDC9F100021CE0B8F1010F4FF000004B
:100B000001D0302103E0F24305E02154401CB04203
:100B1000FBDB30460022002121540B99C1F80880EC
:100B2000C1E900200FB0BDE8F08FBD1B6D1CDEE7F2
:100B30004A4600DA694206A800F0A6FA06AB93E836
:100B4000070003AB83E8070050460A9900F02EFE29
:100B50008DE80700A0F500501F3800900398002D85
:100B60000ADD42F21F014A460844002303A903900C
:100B7000684601F097F809E0A0F500504A461F3892
:100B8000002303A90390684601F0A1F88DE807004F
:100B90000004000C03D04FF0FF30410800E0104685
:100BA000B8F1000F03D00022009215461EE0751E1A
:100BB00005D400F0E3F9303262556D1EF9D5B34625
:100BC0000122084302D000227F1C04E02078302854
:100BD00001D100227F1E002A099784D01DE0112D2B
:100BE00007DA00F0CBF9303262556D1C50EA010291
:100BF000F5D1084302D00098C8B10EE00021681E6C
:100C000005E0235C625C63542254401E491C81420F
:100C1000F7DBAB46A81B401E0990002004F80B0030
:100C20000B98099AC0F80880C0E9002B7AE71126D2
:100C30004FF0000857E72DE9F04F88460446D21DD3
:100C400022F0070191B0D1E90001CDE90A0105F0D8
:100C5000DEFF02460B98C00F01D02D2007E0206870
:100C6000810701D52B2002E0202101EAC000032AE0
:100C7000099001D0072A05DB03464146204600F0D3
:100C8000C3F90BE12078800601D5E06900E0062079
:100C9000B8F1650F814606D0B8F1660F18D0B8F1EB
:100CA000670F70D131E00020B9F1110F009001DB26
:100CB000112301E009F101030AAA01A90CA8FFF719
:100CC000E2FEDDE90C70002609F10105834647E0EC
:100CD00001204B4600904FF000470AAA01A90CA83A
:100CE000FFF7D1FEDDE90DB00C995D46002610B985
:100CF00009F101000D18B9EB050003D4C0F1FF366E
:100D000009F10105A5EB09002BE0B9F1010F01DAAA
:100D10004FF001090020B9F1110F0090484601DDA4
:100D2000112300E003460AAA01A90CA8FFF7ABFEB5
:100D3000DDE90C704D4600268346207800070AD472
:100D4000AB4500DA5D4601A8012D04DD411911F81B
:100D5000011C302907D04F4502DA17F1040F04DADD
:100D6000012082460FE06D1EEEE7002F02DCED1B36
:100D70003E4403E0781CA84200DD7D1CB81B00F156
:100D8000010A4FF000472078000703D4AA4501DB91
:100D90004FF0FF3A0021B7F1004F0DF143088DF8F5
:100DA000431024D002202B23002F01DA7F422D2371
:100DB0000A21021EA0F1010000DC5FB197FBF1FCEB
:100DC00097FBF1F201FB1C7C17460CF1300C08F884
:100DD00001CDEEE7A8F1010003702188090501D5D6
:100DE000452100E06521A0F1010800F8011C0998E7
:100DF0000FA9A1EB0807FF1D00B10120411901EB6C
:100E0000EA70A1693844081A401EA0612078C00623
:100E100002D42046AFF30080099828B1D4E901211B
:100E20009047206A401C20622078C00622D52046C8
:100E3000AFF300801EE0002E04DBB34502DD01A805
:100E4000805D00E03020D4E901219047206A401CF9
:100E50002062761CAAF101005FEA000A0AD100F0C4
:100E60006BF8C0680168405CD4E901219047206AB2
:100E7000401C2062281EA5F10105DCDC07E0D4E956
:100E8000012118F8010B9047206A401C2062381E8F
:100E9000A7F10107F3DC2046AFF30080032011B077
:100EA00041E6000001694A1C02610878704700B5FC
:100EB0008FB0CDE901310021059105497944CDE993
:100EC000031011466846FFF78FFB0FB000BD00000E
:100ED000E5FFFFFF0A6802F8010B0A60704710B5D2
:100EE000436913B1AFF3008001E0FFF7EBFA012093
:100EF00010BD127800F124010A7000224A7001220C
:100F0000EDE711684FF0FF32E9E70000074B70B5DD
:100F10000D467B44FFF7CBFF0446284600F026F938
:100F200010B14FF0FF3070BD204670BD9F920000A1
:100F3000004870477C8D0020004870479C8D002041
:100F4000004870477C8D0020034640688C4600288E
:100F500018BF88423CBF03464068F8D3186818445D
:100F6000884207D00CF1030020F00700001D411A51
:100F7000521A0146081D0A60FFF7E5B930B5B0F115
:100F80000A024FEA900E71F100034EEA817EB0EB47
:100F90000E0061EB91014FEA101E4EEA017E10EB4C
:100FA0000E0041EB11114FEA102E4EEA016E10EBCC
:100FB0000E0041EB11214FEA104E4EEA014E10EBAC
:100FC0000E0041EB1141401841F100014FEAD00001
:100FD00040EA41704FEAD10110EB80054FEA8104ED
:100FE00044EA907444EB01046D1944EB0404521B71
:100FF000A3414FF0000348BF0A3200D530BD401C6A
:1010000041F1000130BD00002DE9F0411F460446CA
:1010100003260168072A01F4006004DB08B116A565
:1010200005E016A503E008B115A500E015A521F01F
:1010300010002060A069C01EA0610FB1401EA06119
:101040002046AFF300804FB1D4E9012138469047E4
:10105000206A401C2062C01C206206E0206AFAE779
:10106000D4E9012115F8010B9047761EF8D22046ED
:10107000AFF30080BDE8F0814E414E006E616E001E
:10108000494E4600696E66002DE9F04781461646D6
:101090008AB0354878440DC88DE80D003248784450
:1010A000801C03AC0DC884E80D0041F69B30084459
:1010B000372190FBF1F290FBF1F5A5F1800501FBE2
:1010C00012041B3C02D56442012000E00020DFF83E
:1010D00098A080460027FA44AAF1BE0A0EE0E00775
:1010E0000AD03246684607EB470101230AEB81012B
:1010F00000F0EDFD8DE8070064107F1C002CEED1A0
:10110000194F7F44AE3F19E0E80715D007EB0410F4
:101110000DF1180A90E80E008AE80E00C068F0424F
:1011200001D1981908903246012306A903A800F0BE
:10113000CEFD03AB83E807006D10641C002DE3D1E6
:101140004FF0010332466946B8F1000F03A802D000
:1011500000F0A8FD01E000F0BAFDC9E90001C9F8FE
:1011600008200AB0BDE8F08768750200007B00F037
:101170008000704710B542485421FFF762FB414898
:101180005421FFF75EFB40485421FFF75AFB3F49CB
:101190003B483C4A3F4B08603D490A603A49196068
:1011A000531C0365481C1065012008653B48344A00
:1011B00039A1784400F0CAF820B9384878440A3890
:1011C00000F06EF937482F4A35A1784400F0BEF898
:1011D00020B9344878440A3800F062F932482A4A83
:1011E0002FA1784400F0B2F820B92F4878440A388B
:1011F00000F056F940232248DC000021224600F08E
:1012000082F820B125487844543800F049F91D4847
:1012100022464023002100F076F820B1214878448E
:10122000543800F03DF9184822461023002100F000
:101230006AF8002806D01C487844BDE810405638AB
:1012400000F02EB910BD104870B5006D20F00104FB
:101250000B4800F0F1F80B4800F0EEF80A4800F0F7
:10126000EBF809E0206D20F00105204600F0E4F8DD
:101270002046FFF768F82C46002CF3D170BD000023
:10128000808C0020D48C0020288D0020801300202A
:10129000841300208813002072000000F62802004A
:1012A00077000000E5280200D528020010B500F004
:1012B000FFF8BDE8104000F0EEB870477546FFF744
:1012C00037FEAE4605006946534620F007008546C6
:1012D00018B020B5FEF7F6FFBDE820404FF000063D
:1012E0004FF000074FF000084FF0000B21F007010E
:1012F000AC46ACE8C009ACE8C009ACE8C009ACE851
:10130000C0098D46704770B5C468A50713D0650243
:1013100011D4B2F5807F09D0B2F5007F06D0B2F5C6
:10132000806F08D1012300F1240106E05D1E6FF0FB
:101330007F46B54201D3012070BD0161C3614160A8
:1013400024F470611143C160002070BD2DE9F041AB
:101350000C4607461646104600F06EF82078611CD1
:1013600061280AD0722802D077283CD102E00125FA
:10137000002405E00225042402E0082448F20205C6
:1013800011F8010B2B2806D0622809D011F8010CA6
:1013900074280AD00BE045F0030544F00204EFE79F
:1013A00045F0040544F00104EAE744F0100438462F
:1013B000214606F027FA411C15D0002131617160E9
:1013C0004FF40071F560F1617061200704D530467B
:1013D0000222002100F09AF8306D40F001003065E3
:1013E0003046BDE8F0810020FBE72DE9F0410D46D5
:1013F0000646104C206DC10704D0410804D020F0EF
:101400000104F7E722460EE05420FEF76DFF0700C7
:101410000ED0206D47F00101084354212065384665
:10142000FFF70FFA3A4629463046BDE8F0418DE70E
:101430000020D6E7808C00202DE9F04704464FF0CD
:1014400000094FF0FF37C568D4E90486A80707D024
:10145000204600F00BF9304606F0BAF9002802DA0F
:101460003846BDE8F087280502D54046FEF76BFFF9
:101470004C212046FFF7E5F9206D20F001002065A2
:101480004846EEE710B50446AFF300802046BDE8BD
:101490001040FEF703BF002801D000F031B87047BC
:1014A00010B500F041F9BDE81040FFF7F4BF0000AF
:1014B00010B5012805D0002103A000F01BF9012080
:1014C00010BD09A1F8E7000053494752544D454D5E
:1014D0003A204F7574206F662068656170206D65D5
:1014E0006D6F7279000000003A2048656170206DD0
:1014F000656D6F727920636F7272757074656400C8
:1015000001491820ABBEFEE7260002002DE9F0419C
:10151000044616460D464769007B80072ED03846A4
:1015200006F064F950BB3EB3012E02D0022E25D145
:1015300004E0204600F019F905441DE0384606F0A5
:1015400053F9E168002841F01001E16005DA204616
:1015500000F058F80120BDE8F081C9030BD562689E
:10156000E16A914200D81146A26911442269891AA0
:10157000814200DD08460544002D01DA0220EAE739
:10158000E16A6068E268814206D29103E06203D5B5
:1015900022F4003141F01002A6690027AE4213DCAC
:1015A000E16A814201D90B4600E0034603EB060CD9
:1015B0002369ACEB030CAC4506DD814201D98C46B6
:1015C00000E084469C4505D1A760276042F02000DA
:1015D000A5620DE0AD1BE669AE1B8142A66000D995
:1015E0000846C01A281A20605819606022F02000AE
:1015F00003490840E060002084F84870ABE7000031
:10160000BFCFD7FFC16821F4001141F08001C16054
:1016100000218160016070472DE9F0478146144642
:101620000E464FF0FF383248D5685769054209D059
:101630003846A16906F012F9002811DB2C48C04396
:101640000540E5602B4632464946384606F009F922
:10165000A16920F00042B21A11440028A16103D010
:101660002046FFF7CFFF4046BDE8F08770B504463F
:101670000569C06A6168884200D80846E16821F4BB
:101680002011E160C90312D5A84208D02246411BAF
:101690002846FFF7C1FF10B14FF0FF3070BD0020AA
:1016A000E562C4E90150E06820F48030E060002089
:1016B00070BD10B50446C06820F02000E060A16A4B
:1016C000A06988420DD02046FFF7D0FFE06820F4E3
:1016D000405040F01000E060A06AA0612069E06224
:1016E000606044F24001E0688843E06010BD0000A3
:1016F0001000020070B505460C460A2000E06D1C83
:1017000000F02CF835B128780028F8D102E0641CEC
:1017100000F024F814B120780028F8D1BDE870401A
:101720000A2000F01BB8000010B5014602A0FFF728
:10173000E1FF012010BD0000534947525452454477
:101740003A2052656469726563743A2063616E275A
:1017500074206F70656E3A200000000008B569467D
:101760008DF800000320ABBE08BD10B50146C2686D
:10177000900703D0900607D5886A0AE0FFF7E0FBE0
:1017800001210160881E10BD8B69486818440B69EF
:10179000C01A91F848301BB191F84910401A10BD99
:1017A0001103FCD50028FADD401E10BD5FEA400C95
:1017B00008BF91F0000F4FEA8C234FEAC12243EAA1
:1017C00051514FEA1C5018BF00F5F0404FEA30006D
:1017D00018BF41F000415FEA6C5C00F02980BCF169
:1017E000FF3F08BF40F080407047130C06BF120453
:1017F0004FF0100C4FF0000C130E04BF12020CF14E
:10180000080C130F04BF12010CF1040C930F04BF5A
:1018100092000CF1020CD30F04BF52000CF1010C2A
:1018200011464FF00002A0F11F00A0EB0C00704722
:1018300011F0004F08BF704731F000413FF4D5AFC1
:101840000B0C06BF09044FF0100C4FF0000C0B0EF0
:1018500004BF09020CF1080C0B0F04BF09010CF1C5
:10186000040C8B0F04BF89000CF1020CCB0F04BFDA
:1018700049000CF1010CCCF12003A0EB0C0022FA82
:1018800003F302FA0CF241EA030100F10100704790
:1018900020F07F4C80EA030023F07F47ACEB070386
:1018A00003F57C5300F0004003F1FF032DE980496C
:1018B0004FEA154B09B44FEA144325EA0B4E24EACC
:1018C00003480FF2042606EB132749083E785FEA27
:1018D000320203FB0667C7F5000707FB06F64FEA6F
:1018E00054374FEAD64606F1020607FB066CCCF1E8
:1018F000005C4FEA1C472CEA074C07FB06F40CFB84
:1019000006F504EB15464FEA961634BF00204FF05B
:1019100000404FEAD13706FB07FC4FEA1C4C0CFB9A
:101920000BF7D21B03FB0CF761EB07010CFB0EF767
:10193000B0EB074072EB17420CFB08F734BFA2EB89
:101940000742B2EB074261EB17414FEA0C444FEA02
:10195000910706FB07FC4FEA1C4C0CFB0BF7B0EBA6
:10196000C74072EB573203FB0CF734BFA2EBC74200
:10197000B2EBC74261EB57310CFB0EF7B0EBC7007F
:1019800072EB57720CFB08F734BFA2EBC702B2EB45
:10199000C70261EB5771039F4FEA816141EA9211DF
:1019A00004EBCC044FEAD1374FEA826206FB07FC16
:1019B00042EA90124FEA80604FEA1C4C0CFB0BF796
:1019C000D21B03FB0CF761EB07010CFB0EF7B0EB2E
:1019D000074072EB17420CFB08F734BFA2EB07423B
:1019E000B2EB074261EB17414FEA8C554FEA910782
:1019F00004EB9C2406FB07FC4FEA1C4C0CFB0BF78A
:101A0000B0EBC74072EB573203FB0CF734BFA2EBCD
:101A1000C742B2EBC74261EB57310CFB0EF7B0EB9C
:101A2000C70072EB57720CFB08F734BFA2EBC7027A
:101A3000B2EBC70261EB577115EB4C254FEA8161A0
:101A400041EA92114FEA82624FEAD13742EA90129C
:101A500006FB07FC44F100044FEA80604FEA1C4C8F
:101A60000CFB0BF7D21B03FB0CF761EB07010CFB24
:101A70000EF7B0EB074072EB17420CFB08F734BFD0
:101A8000A2EB0742B2EB074261EB174115EB1C15C5
:101A90004FEA813141EA92414FEA823242EA904272
:101AA0004FEA80304FEA0C7644F1000448EA0343E1
:101AB0004EEA0B484FF0000EB2EB080C71EB030737
:101AC00024BF624639464EEB0E0E4FF0000B001855
:101AD000524149414BEB0B0BB2EB080C71EB030786
:101AE0007BF1000B24BF624639464EEB0E0E4FF0E1
:101AF000000B0018524149414BEB0B0BB2EB080CA9
:101B000071EB03077BF1000B24BF624639464EEBB5
:101B10000E0E51EA020718BF46F0010616EB0E76CC
:101B200055F1000254F1000103D5BDE88901BDE87B
:101B30000088BDE88901BDE80048B619524141EB73
:101B40000101A3F10103704780807F7E7D7C7B7A59
:101B50007978777676757473727171706F6E6E6D59
:101B60006C6C6B6A6A6968686766666564646363FF
:101B700062616160605F5F5E5E5D5D5C5C5B5B5A85
:101B80005A595958585757565655555554545353F2
:101B900052525251515050504F4F4F4E4E4D4D4D4D
:101BA0004C4C4C4B4B4B4A4A4A4949494848484798
:101BB00047474746464645454544444444434343D6
:101BC0004342424242414141002B9C4630D477007F
:101BD0002BD01CB54FEA370703B44FF010004FF07D
:101BE0001001BAF1000F06D0BCF1000FDCBF40F0CD
:101BF000080040F008014FF000000FBCBDE81040A5
:101C00000BF1010BBBF1010F08BF5FEA170722BF01
:101C100012F1010211F101014FF0004143F1000303
:101C200000F0004043EA00007047F9D35708D0E7BE
:101C300046EA064613F1400F4FEA16461FDD13F140
:101C4000200FDFBF16430A46002120335B42BED07F
:101C5000C3F1200746EA064602FA07F74FEA16469E
:101C600046EA0706C3F1200722FA03F201FA07F752
:101C700021FA03F14FF0000342EA0702A7E746EA20
:101C8000020646EA06464FEA164646EA0106BCBF89
:101C900046EA0646360C4FF000034FF000024FF0C4
:101CA000000194E72DE9804C9A46934670B491E880
:101CB000380007C831EA400C48BF34EA430C03D56A
:101CC000FFF7E6FDFFF780FFF0BCBDE8008C2DE9D3
:101CD000804C9A46934670B491E8380007C810F0DB
:101CE000804F08BF13F0804F03D100F005F8FFF7D5
:101CF0006BFFF0BCBDE8008C20F07F4780EA03005A
:101D000023F07F4C07EB0C03A3F57C5300F000405D
:101D1000A3F1FE0392F0000F00F0B38095F0000FE6
:101D200000F077802DE901494FEA11404FEA14464F
:101D300021EA004800FB06FC24EA064708FB06F6F9
:101D400007FB08F800FB07F718EB06484CEB164CAE
:101D50004FEA124B18EB07484FEA15464CEB174079
:101D600022EA0B4E0BFB06FC25EA06470EFB06F6A5
:101D700007FB0EFE0BFB07F71EEB064E4CEB164C5B
:101D80004FF000061EEB074E4CEB174B18EB0B0801
:101D900040F1000018EB0E0B58EB000840F100007A
:101DA0008F1A4FF000013CBFC943661B14BFB5EB4F
:101DB000040C00213CBFC943F61B4FEA17444EEA0E
:101DC0008E0E27EA04454FEA1C4704FB07622CEA03
:101DD000074C05FB07F70CFB05F604FB0CFC16EBA8
:101DE000074642EB174216EB0C4642EB1C421BEB3C
:101DF000060658EB0202414146EA9E0601D5BDE8BF
:101E00000189B619524141EB0101A3F10103BDE87B
:101E100001894FEA14454FEA114724EA054621EAB1
:101E2000074C05FB07F406FB07F70CFB06F105FB67
:101E30000CFC11EB074144EB17444FEA124711EB3E
:101E40000C4144EB1C4422EA074C05FB07F206FB5D
:101E500007F70CFB06F605FB0CFC16EB074642EBFE
:101E6000174216EB0C4642EB1C456A1854F1000170
:101E700048BF7047B619524141EB0101A3F101037C
:101E8000704795F0000F37D04FEA11424FEA1447E0
:101E900021EA024624EA074C02FB07F106FB07F79A
:101EA0000CFB06F402FB0CFC14EB074441EB17415E
:101EB0004FEA154714EB0C4441EB1C4125EA074C53
:101EC00002FB07F506FB07F70CFB06F602FB0CFC12
:101ED00016EB074645EB174516EB0C4645EB1C4247
:101EE000121951F1000148BF7047B619524141EB38
:101EF0000101A3F1010370474FEA14454FEA11476E
:101F000024EA054621EA074C05FB07F106FB07F723
:101F10000CFB06F24FF0000605FB0CFC12EB07422F
:101F200041EB174112EB0C4251EB1C4148BF70478B
:101F3000921841EB0101A3F10103704710B501466E
:101F4000806B026C12F0500F05D0026CD20626D5C1
:101F500000F0CAFA10BD016C41F40071016401681F
:101F60008A6812F0405F17D1027EAAB9CA6A12F4D9
:101F7000700F02D08A6852050ED44A6822F02002FF
:101F80004A60016C21F480710164016CC90403D4BE
:101F9000016C41F00101016400F0A4FA10BD806BF6
:101FA000C26CBDE810400846104710B5806B402158
:101FB0000164416C41F00401416400F095FA10BDE8
:101FC00010B5806B00F08FFA10BD0000464910B5C7
:101FD0004A6822F440324A604A6843681A434A60B9
:101FE00001684A6822F480724A6001684A6803699D
:101FF00042EA03224A6001684A6822F040724A605D
:1020000001684A6883681A434A6001688A6822F452
:1020100000628A6001688A68C3681A438A60816ABC
:102020006FF07062D14201688A6822F070628A6043
:1020300001688A680CD0836A1A438A6001688A68DA
:1020400022F040528A6001688A68C36A1A4301E03C
:1020500022F040528A6001688A6822F002028A6097
:1020600001688A68037E42EA43028A6090F8201081
:10207000002901684A680FD042F400624A60016892
:102080004A6822F460424A6001684A68174C436A11
:1020900004EB43331A4301E022F400624A60016812
:1020A000CA6A22F47002CA620168CA6A838B104C41
:1020B00004EB03531A43CA6201688A6822F400726F
:1020C0008A6001688A6890F8303042EA43228A6068
:1020D00001688A6822F480628A6001688A684069BF
:1020E00042EA8020886010BD0023014000E0FFFF2D
:1020F0000000F0FF3FB42548AA2200210270427080
:10210000F12282700E22C2709DF8012002719DF8AA
:10211000002042719DF8052082719DF80420C27153
:102120009DF8092002729DF8082042729DF80D204A
:1021300082729DF80C20C2729DF8192002739DF8DE
:10214000182042739DF81D2082739DF81C20C273D5
:102150009DF8212002749DF82020427412220B4C1D
:102160000B460020255C401C2944C9B20B44C0B278
:10217000DBB29042F6D3A154521C0449A35404B0DC
:10218000034830BC521C01F0E2BB000020140020C8
:10219000DC8B0020FEE7000010B505F00AF81149BD
:1021A0000968114BC1F30221104A012404290BD004
:1021B0000F490C600C68002CFCD10D4908390B60EC
:1021C000096891420AD0FEE70A498C608C68002CAD
:1021D000FCD10B600968914200D0FEE705F05CF885
:1021E00010BD0000002004E0C2A507F4CDB5E8B59D
:1021F000084C025800300240014800F029BB0000A2
:102200002C8B002001681823CAB2103AB2FBF3F2FB
:10221000054B6FF30901032A9B5CC36500D9091DB7
:102220008165084670470000C33A020810B50146B0
:1022300000208B698A6A4FF0C07453B1B3F5005F18
:1022400015D072B1012A0CD0022A0AD0032A09D172
:1022500004E01AB1012A06D0022A03D1C96AC901D1
:1022600000D5012010BDC96AA142FAD010BD002AD4
:10227000F7D0012AF2D0022AF3D0032AF3D010BDFE
:1022800030B50468256825F48025256004686360FE
:102290008368402B036803D099600068C26030BD3A
:1022A0009A600068C16030BD704772B6FEE70000FA
:1022B00030B5B3F5804F05D06FF0704140F8221073
:1022C000002030BD8C690B688D6823434C68898978
:1022D000240144EA0524234343EA014150F8223013
:1022E000014C23401943E9E70000F0CF10B50A681C
:1022F00050F8223023F0010340F822308C68082C7B
:1023000023D000234A682243CC681C430B69224334
:102310001A434B690E4C1A43CB691A430B6A1A4392
:102320004B6A1A438B6A1A43CB6A1A430B6B1A43E4
:102330008B691343CA6B09681A4350F82130A343D1
:10234000134340F82130002010BD4023DAE700009D
:102350007FFF0F0030B5D1E9003443EA04138C68E5
:102360008D89240244EA054423430C8A094D00EB7D
:10237000820005EB045423430C7D6D0105EB0464DE
:10238000896923430B43416801F040410B4343609B
:10239000002030BD0000F0FF78B50024009490F8D4
:1023A0003C20012A19D0012280F83C200A6807232A
:1023B0000568092A13D9EE680A3A02EB42029340F3
:1023C0009E43EE600B788A680A3B03EB43039A4016
:1023D0000368DD682A43DA6010E0022078BD2E69C8
:1023E00002EB420293409E432E610B788A6803EB16
:1023F00043039A4003681D692A431A614A681F23F0
:10240000072A13D205686E6B521E02EB82029340BC
:102410009E436E630B790A885B1E92B203EB8303C3
:102420009A4003685D6B2A435A6327E005680D2ACA
:1024300012D22E6BD21F02EB820293409E432E6378
:102440000B790A88DB1F92B203EB83039A4003687F
:102450001D6B2A431A6311E0EE6A0D3A02EB820209
:1024600093409E43EE620B790A880D3B92B203EBD8
:1024700083039A400368DD6A2A43DA62164B0568D3
:10248000144A9D4206D10D68122D03D1556845F4BA
:102490008005556005689D4218D10B68102B01D04E
:1024A000112B13D1536843F40003536009681029BA
:1024B0000CD10A490A4A0968B1FBF2F101EB81012A
:1024C000490000E0491E00910029FBD180F83C4002
:1024D000002078BD0023014000200140701300203F
:1024E00040420F0070477047704770B504004FF0CE
:1024F000000503D0206C002610B107E0012070BD5C
:10250000204600F01DF8666484F83C60206CC0062C
:1025100010D4206C20F4885040F002002064204643
:10252000FFF754FD6664206C20F0020040F00100CB
:10253000206400E0012584F83C60284670BD00005E
:1025400070B586B0064614216846FEF77AF924492C
:102550003068884242D123480025016841F48071E7
:10256000016000681F4900F4807014390590086804
:1025700040F004000860086800F004000590086856
:1025800040F0010008600868032400F00100059095
:102590000E208DE831006946134800F031FBB4206D
:1025A0008DE831006946114800F02AFB114C1048B3
:1025B000C4E900050015A560C4E90350400060614E
:1025C0008000A0614011C4E907052046656200F063
:1025D0000FFA08B1FFF769FEB463A66306B070BDD9
:1025E0000020014044380240000802400000024040
:1025F000106402402C8B0020F8B5044600200E46E3
:10260000009094F83C10012907D0012184F83C1077
:1026100021688B68DB0702D011E00220F8BD8B68CF
:1026200043F001038B604049404B0968B1FBF3F173
:1026300001EB410100E0491E00910029FBD1216816
:102640008B68DB0503D58B6823F480738B6021686E
:102650008B68DB075DD0236C40F20165AB4343F42C
:10266000807323644968490505D5216C21F4005124
:1026700041F480512164216CC90404D5616C21F0BE
:102680000601616400E0606484F83C00A16B2948A5
:10269000274DC863A16B28480864A16B2748C8640C
:1026A00021686FF0220008602068416841F0806175
:1026B00041602068816841F480718160216813461F
:1026C00032464C31A06B00F0FDF968681C49C00629
:1026D000206806D0884224D1816811F0405F13D071
:1026E0001FE08842F8D0174A904203D1D1F8042362
:1026F000D206F1D0144A904213D1D1F8041301F05C
:102700001F011029E8D30CE0816841F0804181600D
:1027100007E0206C40F010002064606C40F0010085
:1027200060640020F8BD00007013002040420F00DC
:10273000002301403D1F0008C11F0008AB1F000817
:1027400000200140002101400022014010B504009A
:1027500002D0607910B106E0012010BD0020207188
:10276000204600F005F801206071002010BD000037
:1027700008B500680649884208D10648016841F456
:1027800080510160006800F48050009008BD000096
:1027900000300240303802402DE9F0410446876D98
:1027A00000F03EFB064694F835000025022806D0CE
:1027B0008020606584F834500120BDE8F0812068F5
:1027C000016821F0160101602068416921F0800153
:1027D0004161206C08B9A06C20B12068016821F02B
:1027E000080101602068016821F0010101600CE02E
:1027F00000F016FB801B052807D920206065032008
:1028000084F8350084F83450D7E720680068C007A2
:10281000EED194F85C103F208840B860012084F825
:10282000350084F834500020C7E790F835100229AD
:1028300003D08021416501207047052180F83510C3
:102840000068016821F0010101600020704700006C
:102850002DE9F84304464FF00009CDF80090634895
:102860004FF41651A56D0068B0FBF1F72E6894F88F
:102870005C10082000FA01F131420FD021680A688B
:1028800052070BD50A6822F004020A6094F85C1023
:102890008840A860606D40F00100606594F85C10AD
:1028A0004FF0010808FA01F0304208D02168496968
:1028B000090604D5A860606D40F00200606594F8D8
:1028C0005C1004208840304208D0216809688907DC
:1028D00004D5A860606D40F00400606594F85C1059
:1028E00010208840304218D021680968090714D5A3
:1028F000A86020680168490304D50068000308D572
:10290000A16C07E00168C90503D4016821F0080142
:102910000160216C09B12046884794F85C102020A2
:102920008840304231D021680968C9062DD5A86099
:1029300094F8350005282068016806D0490347D57A
:10294000006800031DD4616C1CE021F016010160D9
:102950002068416921F080014161206C08B9A06CB8
:1029600020B12068016821F00801016094F85C1032
:102970003F208840A86084F8358084F83490216D29
:102980001FE0E16B09B120468847606D00282BD01D
:10299000606DC00714D0052084F8350020680168F8
:1029A00021F0010101600098401C0090B84203D85A
:1029B00020680068C007F6D184F8358084F8349028
:1029C000E16C002910D001B02046BDE8F043084773
:1029D0000168C905D5D4016821F01001016084F8AF
:1029E000358084F83490CCE7BDE8F883701300207C
:1029F0002DE9F041044600F013FA06465CB10220CE
:102A000084F83500002584F834502068016821F0EE
:102A1000010101600DE00120BDE8F08100F000FA45
:102A2000801B052805D920206065032084F8350027
:102A3000F2E720680068C007F0D1226811682048DA
:102A40000140D4E901031843D4E903363343184362
:102A500063691843A3691843E3691843236A184359
:102A60000843616A042903D1D4E90B1319430843CD
:102A7000106020684069666A20F0070130460E4306
:102A8000012704280CD1A06A0643E06A40B1204621
:102A9000FFF7CCFB20B14020606584F83570BAE7C1
:102AA000206846612046FFF7ADFB94F85C203F218B
:102AB00091408160656584F835700020ACE70000C6
:102AC0003F8010F02DE9F0410446866D90F8340007
:102AD000002501280DD0012084F8340094F83570C9
:102AE0000020012F07D084F8340002252846BDE8D5
:102AF000F0810220FBE7022784F8357060652046EC
:102B0000FFF7BEFB94F85C103F208840B06020685F
:102B1000016841F016010160206C20B12068016855
:102B200041F0080101602068016841F00101016085
:102B3000DCE7000070B5044600F072F90546601C41
:102B400002D004480078044400F06AF9401BA04217
:102B5000FAD370BD641300202DE9F04186B0142132
:102B60006846FDF76EFE20480168002939D1012131
:102B700001601E480024016841F001010160006805
:102B80004FF4805800F001000C27CDF80080CDE90B
:102B90000470032602250396CDE9015469461448C2
:102BA00000F02EF84FF68070CDE9000502AA6946C4
:102BB00082E8D0000F4800F023F84CF23370CDE9E2
:102BC000000502AA694682E8D0000B4800F018F818
:102BD00002AA694682E8D000CDE90085074800F0E6
:102BE0000FF806B0BDE8F0815C13002038380240D1
:102BF0000014024000100240000C02400018024085
:102C00002DE9F84FDFF8BCA10022012503264FF083
:102C10000F090AF1040BAAF1040E00BF0B6805FAB4
:102C200002F42340A34270D10F7907F00307012F6C
:102C300001D0022F16D187684FEA420806FA08FC35
:102C400027EA0C07D1F80CC00CFA08FC4CEA070C78
:102C5000C0F808C04768A7430C79C4F30014944037
:102C60003C4344600C79E443A4070AD0C4684FEAAB
:102C7000420C06FA0CF7BC438F6807FA0CF727439F
:102C8000C7600C7904F00304022C12D1D40800EBC5
:102C9000840CDCF820405707FF0E09FA07F824EAF5
:102CA0000804D1F8108008FA07F848EA0408CCF8BC
:102CB000208004684FEA420C06FA0CF7BC430F79F7
:102CC00007F0030707FA0CF7274307604C6814F472
:102CD000403F70D03C4C276847F480472760246809
:102CE00022F0030704F480440094384C07EB040CF2
:102CF000DCF8084897074FEA177809FA08F7BC4349
:102D0000334FB84202D1002724E054E0314FB8429B
:102D100001D101271EE0304FB84201D1022719E04E
:102D20002E4FB84201D1032714E02D4FB84201D1F4
:102D300004270FE02B4FB84201D105270AE02A4FA4
:102D4000B84201D1062705E0284FB84201D1072734
:102D500000E0082707FA08F72743CCF80878DAF8E4
:102D600000405746D1F804C09C435FEACC2C00D504
:102D70001C433C60DBF800405F46D1F804C09C4334
:102D80005FEA8C2C00D51C433C60DEF8004077469F
:102D9000D1F804C09C435FEA8C3C00D51C433C60E6
:102DA000084F083F3C68D1F804C09C435FEACC3C24
:102DB00000D51C433C60521C102AFFF42FAFBDE825
:102DC000F88F0000083C01404438024000300140C8
:102DD000000002400004024000080240000C0240D3
:102DE000001002400014024000180240001C024083
:102DF0000AB1816170470904FBE7000002480068DE
:102E0000C0F30B0070470000002004E0004870474A
:102E10000001080101480068000C7047002004E030
:102E200001488068704700006413002002488168F0
:102E30000278114481607047641300200B4810B57C
:102E4000016841F400710160016841F48061016032
:102E5000016841F480710160032000F06FF80F20D9
:102E600000F006F800F024F8002010BD003C0240FD
:102E700070B50D4D04464FF47A712878B1FBF0F02F
:102E80000A490968B1FBF0F000F04CFB48B9102C7E
:102E900007D200222146501E00F030F800206C605E
:102EA00070BD012070BD000064130020701300206D
:102EB0000A4808B5016841F480410160006800F4E7
:102EC000804000900548001F016841F0805101607A
:102ED000006800F08050009008BD000044380240B7
:102EE000002809DB00F01F02012191404009800009
:102EF00000F1E020C0F8001170470000F0B40E4B64
:102F00001B680C46C3F30223C3F10705042D00D947
:102F10000425191D072901D2002300E0DB1E01262C
:102F200006FA05F1491E214099409E40761E164042
:102F30003143F0BC03F096BE0CED00E0064900F012
:102F4000070208684FF6FF03184040EA0220034AD0
:102F500010430860704700000CED00E00000FA0527
:102F60002DE9F0470E46050065D0DFF81481D8F84A
:102F70000000F7B200F00700B04207D288F80070F6
:102F8000D8F8000000F00700B04254D128683D4C4A
:102F9000810712D5400703D5206840F4E050206037
:102FA0002878000703D5206840F46040206020683E
:102FB000A96820F0F000084320602878C0072DD0D1
:102FC000304968680839012812D0022813D0032834
:102FD00011D00968890700292DDA216821F0030141
:102FE00001432160FFF71CFF814641F2883A0EE061
:102FF00009688903EFE709688901ECE7FFF710FF2B
:10300000A0EB0901514502D90320BDE8F0872068F3
:10301000696800F00C00B0EB810FEFD1D8F8001018
:10302000404601F00701B14207D90770006800F07F
:103030000700B04201D00120E7E72878400705D516
:103040002068E96820F4E0500843206028780007F1
:1030500006D52068296920F4604040EAC10020605C
:1030600000F03EF82168084AC1F30311515CC840E2
:103070000649086006480068FFF7FAFE0020C4E72A
:10308000003C024008380240CB3A0208701300208E
:10309000681300200148006870470000701300208A
:1030A0000448054900680968044AC1F38221515C5B
:1030B000C84070477013002008380240DB3A02080D
:1030C0000448054900680968044AC1F34231515C6B
:1030D000C84070477013002008380240DB3A0208ED
:1030E000154810B5006810F00C02144813D04110B8
:1030F000042A0FD0082A0ED10F4C241F22682368FF
:1031000002F03F025B0207D52068C0F38810A0FBE5
:10311000010106E0084610BD2168C1F38811A1FB3A
:1031200000010023FDF736F92168C1F30141491C74
:103130004900B0FBF1F010BD083802400024F40053
:103140002DE9F84F04006ED02078DFF84C93C007CB
:10315000A9F104054AD009F104000168C1F3810115
:10316000012908D00068C0F3810002280AD1D9F8EB
:103170000000400206D52868800337D56068002823
:10318000E1D033E06068B0F5803F10D0B0F5A02FFB
:10319000286810D020F480302860286820F480202F
:1031A00028606068A8B1FFF73BFE06460DE028687E
:1031B00040F48030F4E740F480202860F7E700BF57
:1031C000FFF72EFE801B642873D828688003F7D58C
:1031D0000CE0FFF725FE064605E000BFFFF720FEE6
:1031E000801B6428F0D828688003F7D42078DFF8A3
:1031F000AC8280074FF0000A3ED5A748001D016849
:1032000011F00C0F08D00068C0F3810002280BD128
:10321000D9F80000400207D42868800716D5E06876
:10322000012800D112E033E1E068B8B10120C8F80C
:103230000000FFF7F5FD064605E000BFFFF7F0FDD3
:10324000801B0228C0D828688007F7D52868216924
:1032500020F0F80040EAC10028600DE0C8F800A0A6
:10326000FFF7DEFD064604E0FFF7DAFD801B0228CB
:103270001FD828688007F7D42078000722D5864F0A
:1032800087486169703771B101210160FFF7C8FD9E
:10329000064604E0FFF7C4FD801B022809D8386801
:1032A0008007F7D50EE0C0F800A0FFF7B9FD06468D
:1032B00005E082E0FFF7B4FD801B02287DD8386866
:1032C0008007F7D42078400768D5DFF8CCB1002715
:1032D0000BF13C0BDBF80000C0000BD4DBF8001056
:1032E00041F08051CBF80010DBF80000012700F01E
:1032F000805000906B4E3068C00510D4306840F4A8
:1033000080703060FFF78CFD009005E0FFF788FDCE
:103310000099401A022850D83068C005F6D55E4E94
:10332000A0686C3601280FD00528306810D020F036
:1033300001003060306820F004003060A068B8B14F
:10334000FFF76EFD00900FE0306840F00100F4E7F9
:1033500040F004003060F7E7FFF762FD0099411A82
:1033600041F28830814266D830688007F4D50EE09B
:10337000FFF756FD009007E0FFF752FD0099411A54
:1033800041F28830814256D830688007F4D42FB19A
:10339000DBF8001021F08051CBF80010A069C8B311
:1033A0003D49091D0968C1F3810102294AD002285B
:1033B000504607D0C8F8600000E03CE0FFF730FD61
:1033C00004463BE04746C8F86000FFF729FD064683
:1033D00005E000BFFFF724FD801B02282BD82868DA
:1033E0008001F7D4D4E907010843A16A2E4A4908AD
:1033F00002EB0141626A41EA8211084394F82C1001
:1034000040EA0161C9F8001001203866FFF708FDA5
:10341000044606E03EE000BFFFF702FD001B022865
:1034200009D828688001F7D534E000BFFFF7F8FC21
:10343000001B022802D90320BDE8F88F286880010C
:10344000F4D427E00128F7D0D9F80000E26900F4AD
:10345000800191421CD1226A00F03F01914217D1B4
:1034600047F6C071626A0140B1EB821F10D1A26AB7
:103470004FF0FF3300F4403103EB5202B1EB024F47
:1034800006D194F82C1000F07060B0EB016F01D001
:103490000120D1E70020CFE7043802400000474276
:1034A000800E4742007000400000FFFF70B51546D7
:1034B0000E46040003D094F8490010B107E0012043
:1034C00070BD002084F84800204600F01DF804F18B
:1034D00008012068FEF70AFF3146A2682068FEF75F
:1034E00039FFD4E901022946236BFEF7E1FE21688A
:1034F000A06851F8202042F0010241F8202001206C
:1035000084F84900002070BDFFF726BB4FF0E02192
:103510000428086903D020F004000861704740F0D7
:103520000400FAE710B5401EB0F1807F01D30120FE
:1035300010BD4FF0E02460610F21601703F092FB93
:103540000020A06107202061002010BD7047704757
:10355000F8B5016804460868CA684B6910F00F0F97
:103560004FF0000559D003F0010602F4907737437D
:1035700065D0C10705D0D10503D5216C41F001010B
:103580002164410705D5D90703D0216C41F0020120
:103590002164810705D5D90703D0216C41F00401CE
:1035A0002164010707D502F02001314303D0216CCB
:1035B00041F008012164216C00293AD0800604D52D
:1035C000900602D5204603F0F8F920684069216C86
:1035D000C0F38010090700D460B3204603F0C6F999
:1035E00020684069400621D52068143050E8001F4B
:1035F00021F0400140E80012002AF5D1A06BA8B1EB
:103600006C490165A06BFFF710F9002811D0A06B81
:10361000016D01B0BDE8F040084783060FD5930661
:103620000DD52046BDE8F84003F0C7B92046FFF7A6
:103630008EFFF8BD2046FFF78AFF2564F8BD266B94
:103640002023012E79D1C60677D5D60675D5086810
:10365000486800904869400640D5A16B08684068FA
:103660000004000CEAD0A28D8242E7D9E085C86947
:10367000B0F5807F2DD020680C3050E8001F21F479
:10368000807140E80012002AF5D12068143050E81B
:10369000001F21F0010140E80012002AF5D1206846
:1036A000143050E8001F21F0400140E80012002AC9
:1036B000F5D184F83E30256320680C3050E8001FB7
:1036C00021F0100140E80012002AF5D1A06BFFF7AD
:1036D00063F8A08DE18D401A81B229E0A08DE18DC3
:1036E000401A81B2E08D0028A8D00029A6D0206819
:1036F0000C3050E8002F22F4907240E80026002E93
:10370000F5D12068143050E8002F22F0010240E883
:103710000026002EF5D184F83E30256320680C3059
:1037200050E8002F22F0100240E80023002BF5D1D2
:103730002046FFF70BFFF8BDFFE705062BD5150662
:1037400029D594F83D002128F5D1A068B0F5805F17
:1037500001D12069B0B1206A411C21622168007842
:103760004860E08C401E0004000CE084E3D1206837
:10377000C16821F08001C1602068C16841F040014A
:10378000C160D8E7206A0088C0F308004860206A5A
:10379000801C2062E5E74006CDD55006CBD5CA682F
:1037A000204622F04002CA6084F83D3000F0EEF876
:1037B000C1E700005D69000870B5040004D094F80A
:1037C0003D00002510B106E0012070BD84F83C509A
:1037D000204600F023F8242084F83D002068C168CA
:1037E00021F40051C160204603F048F920680169C6
:1037F00021F4904101612068416921F02A01416171
:103800002068C16841F40051C1602564202084F81B
:103810003D0084F83E00002070BD000010B586B069
:10382000044614216846FDF70CF8184920688842C0
:1038300029D117480021026842F010020260006896
:1038400000F01000059012481438026842F001029E
:103850000260006800F0010005904FF4C060009025
:103860000220CDE90101032003900720049069465E
:103870000848FFF7C5F9002211462520FFF73EFB57
:103880002520FFF72DFB06B010BD00000010014001
:103890004438024000000240704700002DE9F84320
:1038A000044690F83D001F4616460D4620284CD190
:1038B000C5B1BEB194F83C00012846D0012084F87F
:1038C0003C004FF00008C4F84080212084F83D00FF
:1038D000FFF7A6FAA6848146E684A068B0F5805F6B
:1038E00003D004E00120BDE8F883206928B12E460A
:1038F0005FF0000584F83C800EE00026FAE78021A6
:10390000204603F041F9A0B9AEB116F8010B2168C9
:103910004860E08C401EE084E08C4B464FF0000293
:1039200000970028EBD14FF04001204603F02CF91E
:1039300030B10320D7E735F8020BC0F30800E6E703
:10394000202084F83D000020CDE70220CBE790F84E
:103950003D30202B18D1A9B1A2B190F83C30012BF9
:1039600012D001628284C28400210164212280F885
:103970003D2080F83C100068C16841F08001C160C2
:103980000020704701207047022070477047FEE713
:1039900070B50B490646002408884D8821464543EA
:1039A000204602F0A5FC02F015FEB0B24FF0D8415F
:1039B00003E000BFA1F88000641CAC42FAD370BDE4
:1039C000708C00202DE9F04F2B492C260A46887177
:1039D00092884FF4305A4FF4285B4FF4487541F603
:1039E000631E2B274FF02A0C4FF0F00845F21059B8
:1039F0004FF4A0744FF4F073B8B10C80A1F80280BA
:103A00004A4532D1A1F808A0A1F80AB0380288814D
:103A10000D804B80A2F5A640103801D10B804C8060
:103A2000BDE8F04F002002F0A3BBA1F800804C805D
:103A30004A4507D1A1F808A0A1F80AB04FF42C50CC
:103A4000888105E072450E8105D14F81A1F80CC037
:103A50000B804D8002E0A1F80AC08F81A2F5A6403C
:103A60001038DDD10C804B80DAE70E81A1F80AC056
:103A700072458F81CCD0CDE7708C00202DE9F041CC
:103A80009046314A0D460446060A918810462F0A90
:103A90004089A1F5AA43103B0FD0A1F5C853633B61
:103AA00024D002F08AFD304602F07BFDE0B202F045
:103AB00078FD908902F081FD36E002F07EFD30460F
:103AC00002F06FFD5089401C80B202F076FDE0B23A
:103AD00002F067FD908902F070FD384602F061FD4A
:103AE0009089401C80B202F068FD20E0917919B9FC
:103AF0001188091B491E8CB202F05FFD260A304670
:103B000002F04FFDE0B202F04CFD304602F049FDFC
:103B1000E0B202F046FD908902F04FFD384602F017
:103B200040FDE8B202F03DFD384602F03AFDE8B251
:103B300002F037FD4FF0D840118920F87E1FA0F821
:103B40000280BDE8F0810000708C00202DE9F04F6C
:103B5000FD4895B00024016841F002010160006851
:103B600010A900F0020007904FF4004010900120CF
:103B70001190129003201390F448FFF741F8F44895
:103B8000F4494FF0204AC0E900A10621C0E902141F
:103B90001021C0E9044184610902C461C0E90941FE
:103BA0008900C0E90B4189014463C0E90E410F203F
:103BB000CDE909043C200B900F940920CDE90004C5
:103BC0000820029003946A4609A90694E048FFF78A
:103BD0006DFC322005F080FBD32002F0EEFC02F0F9
:103BE00095FADB4C5034A08002F090FA2146888090
:103BF00002F08CFA4FF6FF7B21460BEA002088800A
:103C000002F084FA214649F24137898845F210389A
:103C10000843214645F21056888041F6631947F261
:103C20008975B84275D0042002F0C7FC02F06EFA24
:103C3000A08002F06BFAA08002F068FA0BEA002084
:103C4000A08002F063FAA1880843A0F50541A08096
:103C500052397DD0A8425CD0D42002F0AEFC02F0F4
:103C600055FAA08002F052FAA08002F04FFA0BEA57
:103C70000020A08002F04AFAA1880843A0804045B5
:103C800047D055214FF4704002F0AEFCAA214FF20C
:103C9000010002F0A9FC52214FF2020002F0A4FC44
:103CA00008214FF2030002F09FFC01214FF20400B3
:103CB00002F09AFC4FF4454002F07FFC02F026FA35
:103CC0000BEA0020A0804CF2015002F076FC02F0DA
:103CD0001DFAA1880843A080052005F0FDFAA08800
:103CE000B0F5004F7ED0B04213D0A12002F065FCA9
:103CF00002F00CFAA08002F009FA0BEA0020A08082
:103D000002F004FAA1880843A0F5AE41A080613911
:103D100069D0A088B84267D1CF2002F04EFC0020C5
:103D200002F03FFCC12002F03CFC302002F039FCE4
:103D3000ED2002F042FC642002F033FC032002F08C
:103D400030FC122002F02DFC812002F02AFC00E061
:103D500002E1E82002F031FC852002F022FC102074
:103D600002F01FFC7A2002F01CFCCB2002F025FCA4
:103D7000392002F016FC2C2002F013FC002002F087
:103D800010FC342002F00DFC022002F00AFCF720A7
:103D900002F013FC202002F004FCEA2002F00DFCEB
:103DA000002002F0FEFB002002F0FBFBC02002F02E
:103DB00004FC1B2002F0F5FBC12002F0FEFB0120F9
:103DC00002F0EFFBC52002F0F8FB302002F0E9FB27
:103DD000302002F0E6FBC72002F0EFFBB72002F034
:103DE000E0FB02E0BEE0B9E0BFE0362002F0E5FB18
:103DF000482002F0D6FB3A2002F0DFFB552002F00B
:103E0000D0FBB12002F0D9FB002002F0CAFB1A203F
:103E100002F0C7FBB62002F0D0FB0A2002F0C1FB83
:103E2000A22002F0BEFBF22002F0C7FB002002F04D
:103E3000B8FB262002F0C1FB012002F0B2FBE0201B
:103E400002F0BBFB0F2002F0ACFB2A2002F0A9FB22
:103E5000282002F0A6FB082002F0A3FB0E2002F0AF
:103E6000A0FB082002F09DFB542002F09AFBA92041
:103E700002F097FB432002F094FB0A2002F091FB32
:103E80000F2002F08EFB002002F08BFB002002F0DE
:103E900088FB002002F085FB002002F082FBE1207D
:103EA00002F08BFB002002F07CFB152002F079FB76
:103EB000172002F076FB072002F073FB112002F0BE
:103EC00070FB062002F06DFB2B2002F06AFB5620EF
:103ED00002F067FB3C2002F064FB052002F061FB6E
:103EE000102002F05EFB0F2002F05BFB3F2002F08F
:103EF00058FB3F2002F055FB0F2002F052FB2B2015
:103F000002F05BFB002002F04CFB002002F049FBBA
:103F1000012002F046FB3F2002F043FB2A2002F082
:103F20004CFB002002F03DFB002002F03AFB002099
:103F300002F037FBEF2002F034FB112002F03DFBD2
:103F4000782005F0C9F9E3E030380240000402406F
:103F5000208C0020040100A0A58008E0A4F80490B3
:103F600001F0DCBFA68001F054B8A8427ED1112038
:103F700002F023FB782005F0AFF9362002F01DFB9C
:103F8000002002F00EFB3A2002F017FB052002F0A1
:103F900008FBB22002F011FB0C2002F002FB0C2007
:103FA00002F0FFFA002002F0FCFA332002F0F9FAE6
:103FB000332002F0F6FAB72002F0FFFA352002F0C3
:103FC000F0FABB2002F0F9FA322002F0EAFAC0203F
:103FD00002F0F3FA0C2002F0E4FAC22002F0EDFA4B
:103FE000012002F0DEFAC32002F0E7FA102002F00E
:103FF000D8FAC42002F0E1FA202002F0D2FAC6205A
:1040000002F0DBFA0F2002F0CCFAD02002F0D5FA51
:10401000A42002F0C6FAA12002F0C3FAE02002F0C8
:10402000CCFAD02002F0BDFA002002F0BAFA022049
:1040300002F0B7FA072002F0B4FA0A2002F0B1FA4F
:10404000282002F0AEFA322002F0ABFA442002F04F
:10405000A8FA422002F0A5FA062002F0A2FA0E20E9
:1040600002F09FFA122002F09CFA00E053E01420C4
:1040700002F097FA172002F094FAE12002F09DFA7C
:10408000D02002F08EFA002002F08BFA022002F01B
:1040900088FA072002F085FA0A2002F082FA282026
:1040A00002F07FFA312002F07CFA542002F079FA13
:1040B000472002F076FA0E2002F073FA1C2002F07C
:1040C00070FA172002F06DFA1B2002F06AFA1E2027
:1040D00002F067FA2A2002F070FA002002F061FA7A
:1040E000002002F05EFA002002F05BFAEF2002F0FE
:1040F00058FA2B2002F061FA002002F052FA002058
:1041000002F04FFA012002F04CFA3F2002F049FA87
:10411000292001F0FEBE40457ED1ED2002F04DFA8F
:10412000012002F03EFAFE2002F03BFAEE2002F0FF
:1041300044FADE2002F035FA212002F032FAF120B2
:1041400002F03BFA012002F02CFADF2002F035FAEF
:10415000102002F026FAC42002F02FFA8F2002F07D
:1041600020FAC62002F029FA002002F01AFAE22012
:1041700002F017FAE22002F014FAE22002F011FA3B
:10418000BF2002F01AFAAA2002F00BFAB02002F0C7
:1041900014FA0D2002F005FA002002F002FA0D20B8
:1041A00002F0FFF9002002F0FCF9112002F0F9F909
:1041B000002002F0F6F9192002F0F3F9002002F0D5
:1041C000F0F9212002F0EDF9002002F0EAF92D20AB
:1041D00002F0E7F9002002F0E4F93D2002F0E1F9F5
:1041E000002002F0DEF95D2002F0DBF9002002F091
:1041F000D8F95D2002F0D5F9002002F0D2F9B12003
:1042000002F0DBF9802002F0CCF9002002F0C9F9BD
:104210008B2002F0C6F900E0FDE3002002F0C1F9B6
:10422000962002F0BEF9002002F0BBF9B22002F0A5
:10423000C4F9002002F0B5F9002002F0B2F9022022
:1042400002F0AFF9002002F0ACF9032002F0A9F966
:10425000002002F0A6F9B32002F0AFF9002002F02E
:10426000A0F9002002F09DF9002002F09AF9002048
:1042700002F097F9002002F094F9002002F091F981
:10428000002002F08EF9002002F08BF9002002F0ED
:1042900088F9002002F085F9002002F082F9002060
:1042A00002F07FF9002002F07CF9002002F079F999
:1042B000002002F076F9002002F073F9002002F0ED
:1042C00070F9002002F06DF9002002F06AF9002078
:1042D00002F067F9002002F064F9002002F061F9B1
:1042E000002002F05EF9002002F05BF9B42002F039
:1042F00064F98B2002F055F9002002F052F9962063
:1043000002F04FF9002002F04CF9A12002F049F927
:10431000002002F046F9B52002F04FF9022002F029
:1043200040F9002002F03DF9032002F03AF90020A4
:1043300002F037F9042002F034F9002002F031F9DC
:10434000B62002F03AF9002002F02BF9002002F02A
:1043500028F9B72002F031F9002002F022F90020FC
:1043600002F01FF93F2002F01CF9002002F019F9B9
:104370005E2002F016F9002002F013F9642002F02A
:1043800010F9002002F00DF98C2002F00AF900204B
:1043900002F007F9AC2002F004F9002002F001F964
:1043A000DC2002F0FEF8002002F0FBF8702002F0A2
:1043B000F8F8002002F0F5F8902002F0F2F8002062
:1043C00002F0EFF8EB2002F0ECF8002002F0E9F840
:1043D000DC2002F0E6F8002002F0E3F8B82002F05A
:1043E000ECF8002002F0DDF8002002F0DAF80020FE
:1043F00002F0D7F8002002F0D4F8002002F0D1F843
:10440000002002F0CEF8002002F0CBF8002002F0ED
:10441000C8F8BA2002F0D1F8242002F0C2F8002037
:1044200002F0BFF8002002F0BCF8002002F0B9F85A
:10443000C12002F0C2F8202002F0B3F8002002F000
:10444000B0F8542002F0ADF8002002F0AAF8FF20E6
:1044500002F0A7F8002002F0A4F8C22002F0ADF8A4
:104460000A2002F09EF8002002F09BF8042002F0DF
:1044700098F8002002F095F8C32002F09EF83C2046
:1044800002F08FF8002002F08CF83A2002F089F850
:10449000002002F086F8392002F083F8002002F0B4
:1044A00080F8372002F07DF8002002F07AF83C20F6
:1044B00002F077F8002002F074F8362002F071F86C
:1044C000002002F06EF8322002F06BF8002002F0BB
:1044D00068F82F2002F065F8002002F062F82C2026
:1044E00002F05FF8002002F05CF8292002F059F891
:1044F000002002F056F8262002F053F8002002F0C7
:1045000050F8242002F04DF8002002F04AF8242050
:1045100002F047F8002002F044F8232002F041F8AE
:10452000002002F03EF83C2002F03BF8002002F0B0
:1045300038F8362002F035F8002002F032F8322048
:1045400002F02FF8002002F02CF82F2002F029F8BA
:10455000002002F026F82C2002F023F8002002F0C0
:1045600020F8292002F01DF8002002F01AF8262079
:1045700002F017F8002002F014F8242002F011F8DD
:10458000002002F00EF8242002F00BF8002002F0C8
:1045900008F8232002F005F8002002F002F8C420F9
:1045A00002F00BF8622001F0FCFF002001F0F9FF9F
:1045B000052001F0F6FF002001F0F3FF842001F058
:1045C000F0FF002001F0EDFFF02001F0EAFF0020F5
:1045D00001F0E7FF182001F0E4FF002001F0E1FF07
:1045E000A42001F0DEFF002001F0DBFF182001F025
:1045F000D8FF002001F0D5FF502001F0D2FF0020AD
:1046000001F0CFFF0C2001F0CCFF002001F0C9FF2A
:10461000172001F0C6FF002001F0C3FF952001F034
:10462000C0FF002001F0BDFFF32001F0BAFF002021
:1046300001F0B7FFE62001F0B4FF002001F0B1FF68
:10464000C52001F0BAFF322001F0ABFF002001F0DD
:10465000A8FF442001F0A5FF002001F0A2FF652083
:1046600001F09FFF002001F09CFF762001F099FFF0
:10467000002001F096FF882001F093FF002001F058
:1046800090FFC62001F099FF202001F08AFF002052
:1046900001F087FF172001F084FF002001F081FF67
:1046A000012001F07EFF002001F07BFFC72001F018
:1046B00084FF002001F075FF002001F072FF002050
:1046C00001F06FFF002001F06CFFC82001F075FFC2
:1046D000002001F066FF002001F063FF002001F0E0
:1046E00060FF002001F05DFFC92001F066FF00209F
:1046F00001F057FF002001F054FF002001F051FFAE
:10470000002001F04EFF002001F04BFF002001F0DF
:1047100048FF002001F045FF002001F042FF00208B
:1047200001F03FFF002001F03CFF002001F039FFC5
:10473000002001F036FF002001F033FF002001F0DF
:1047400030FF002001F02DFF002001F02AFFE020C3
:1047500001F033FF162001F024FF002001F021FFBB
:104760001C2001F01EFF002001F01BFF212001F0A2
:1047700018FF002001F015FF362001F012FF002085
:1047800001F00FFF462001F00CFF002001F009FFAF
:10479000522001F006FF002001F003FF642001F029
:1047A00000FF002001F0FDFE7A2001F0FAFE00205B
:1047B00001F0F7FE8B2001F0F4FE002001F0F1FE85
:1047C000992001F0EEFE002001F0EBFEA82001F0A0
:1047D000E8FE002001F0E5FEB92001F0E2FE002035
:1047E00001F0DFFEC42001F0DCFE002001F0D9FE64
:1047F000CA2001F0D6FE002001F0D3FED22001F045
:10480000D0FE002001F0CDFED92001F0CAFE00202C
:1048100001F0C7FEE02001F0C4FE002001F0C1FE5F
:10482000F32001F0BEFE002001F0BBFEE12001F00C
:10483000C4FE162001F0B5FE002001F0B2FE1C20DF
:1048400001F0AFFE002001F0ACFE222001F0A9FE35
:10485000002001F0A6FE362001F0A3FE002001F0AA
:10486000A0FE452001F09DFE002001F09AFE52209E
:1048700001F097FE002001F094FE642001F091FE0B
:10488000002001F08EFE7A2001F08BFE002001F066
:1048900088FE8B2001F085FE002001F082FE992029
:1048A00001F07FFE002001F07CFEA82001F079FEDF
:1048B000002001F076FEB92001F073FE002001F027
:1048C00070FEC42001F06DFE002001F06AFECA20D7
:1048D00001F067FE002001F064FED22001F061FECD
:1048E000002001F05EFED82001F05BFE002001F008
:1048F00058FEE02001F055FE002001F052FEF320AA
:1049000001F04FFE002001F04CFEE22001F055FEC8
:10491000052001F046FE002001F043FE0B2001F0CF
:1049200040FE002001F03DFE1B2001F03AFE002079
:1049300001F037FE342001F034FE002001F031FE9A
:10494000442001F02EFE002001F02BFE4F2001F04C
:1049500028FE002001F025FE612001F022FE00204B
:1049600001F01FFE792001F01CFE002001F019FE6D
:10497000882001F016FE002001F013FE972001F0C0
:1049800010FE002001F00DFEA62001F00AFE00201E
:1049900001F007FEB72001F004FE002001F001FE47
:1049A000C22001F0FEFD002001F0FBFDC72001F058
:1049B000F8FD002001F0F5FDD12001F0F2FD00200E
:1049C00001F0EFFDD62001F0ECFD002001F0E9FD43
:1049D000DD2001F0E6FD002001F0E3FDF32001F011
:1049E000E0FD002001F0DDFDE32001F0E6FD052003
:1049F00001F0D7FD002001F0D4FD0A2001F0D1FD27
:104A0000002001F0CEFD1C2001F0CBFD002001F0C4
:104A1000C8FD332000E0FAE201F0C3FD002001F000
:104A2000C0FD442001F0BDFD002001F0BAFD502082
:104A300001F0B7FD002001F0B4FD622001F0B1FDEE
:104A4000002001F0AEFD782001F0ABFD002001F068
:104A5000A8FD882001F0A5FD002001F0A2FD97200F
:104A600001F09FFD002001F09CFDA62001F099FDC2
:104A7000002001F096FDB72001F093FD002001F029
:104A800090FDC22001F08DFD002001F08AFDC720BD
:104A900001F087FD002001F084FDD12001F081FDAF
:104AA000002001F07EFDD52001F07BFD002001F00B
:104AB00078FDDD2001F075FD002001F072FDF3208E
:104AC00001F06FFD002001F06CFDE42001F075FDA8
:104AD000012001F066FD002001F063FD012001F0DE
:104AE00060FD002001F05DFD022001F05AFD002074
:104AF00001F057FD2A2001F054FD002001F051FD86
:104B00003C2001F04EFD002001F04BFD4B2001F058
:104B100048FD002001F045FD5D2001F042FD002030
:104B200001F03FFD742001F03CFD002001F039FD53
:104B3000842001F036FD002001F033FD932001F0C8
:104B400030FD002001F02DFDA22001F02AFD002003
:104B500001F027FDB32001F024FD002001F021FD2C
:104B6000BE2001F01EFD002001F01BFDC42001F05D
:104B700018FD002001F015FDCD2001F012FD0020F0
:104B800001F00FFDD32001F00CFD002001F009FD24
:104B9000DD2001F006FD002001F003FDF32001F00F
:104BA00000FD002001F0FDFCE52001F006FD0020E5
:104BB00001F0F7FC002001F0F4FC002001F0F1FC12
:104BC000002001F0EEFC022001F0EBFC002001F0DF
:104BD000E8FC292001F0E5FC002001F0E2FC3C208B
:104BE00001F0DFFC002001F0DCFC4B2001F0D9FCDF
:104BF000002001F0D6FC5D2001F0D3FC002001F084
:104C0000D0FC742001F0CDFC002001F0CAFC84200F
:104C100001F0C7FC002001F0C4FC932001F0C1FCAE
:104C2000002001F0BEFCA22001F0BBFC002001F03E
:104C3000B8FCB32001F0B5FC002001F0B2FCBE20AE
:104C400001F0AFFC002001F0ACFCC42001F0A9FC95
:104C5000002001F0A6FCCD2001F0A3FC002001F013
:104C6000A0FCD32001F09DFC002001F09AFCDC2088
:104C700001F097FC002001F094FCF32001F091FC7E
:104C8000002001F08EFCE62001F097FC112001F0DD
:104C900088FC002001F085FC342001F082FC00201B
:104CA00001F07FFC562001F07CFC002001F079FC33
:104CB000762001F076FC002001F073FC772001F0F3
:104CC00070FC002001F06DFC662001F06AFC002001
:104CD00001F067FC882001F064FC002001F061FC19
:104CE000992001F05EFC002001F05BFCBB2001F08C
:104CF00058FC002001F055FC992001F052FC0020E6
:104D000001F04FFC662001F04CFC002001F049FC52
:104D1000552001F046FC002001F043FC552001F035
:104D200040FC002001F03DFC452001F03AFC002051
:104D300001F037FC432001F034FC002001F031FC8D
:104D4000442001F02EFC002001F02BFCE72001F0B4
:104D500034FC322001F025FC002001F022FC55201B
:104D600001F01FFC002001F01CFC762001F019FC72
:104D7000002001F016FC662001F013FC002001F079
:104D800010FC672001F00DFC002001F00AFC6720F8
:104D900001F007FC002001F004FC872001F001FC79
:104DA000002001F0FEFB992001F0FBFB002001F048
:104DB000F8FBBB2001F0F5FB002001F0F2FB99208D
:104DC00001F0EFFB002001F0ECFB772001F0E9FBA4
:104DD000002001F0E6FB442001F0E3FB002001F09D
:104DE000E0FB562001F0DDFB002001F0DAFB232080
:104DF00001F0D7FB002001F0D4FB332001F0D1FB00
:104E0000002001F0CEFB452001F0CBFB002001F09B
:104E1000C8FBE82001F0D1FB002001F0C2FB00201C
:104E200001F0BFFB992001F0BCFB002001F0B9FBB1
:104E3000872001F0B6FB002001F0B3FB882001F0D1
:104E4000B0FB002001F0ADFB772001F0AAFB0020B1
:104E500001F0A7FB662001F0A4FB002001F0A1FBFC
:104E6000882001F09EFB002001F09BFBAA2001F0AE
:104E700098FB002001F095FBBB2001F092FB002085
:104E800001F08FFB992001F08CFB002001F089FBE1
:104E9000662001F086FB002001F083FB552001F025
:104EA00080FB002001F07DFB552001F07AFB002003
:104EB00001F077FB442001F074FB002001F071FB4E
:104EC000442001F06EFB002001F06BFB552001F047
:104ED00068FB002001F065FBE92001F06EFBAA20D1
:104EE00001F05FFB002001F05CFB002001F059FBAA
:104EF000002001F056FB002001F05FFBAA2001F02A
:104F000050FBCF2001F059FB002001F04AFB0020AC
:104F100001F047FB002001F044FB002001F041FBC1
:104F2000002001F03EFB002001F03BFB002001F0DF
:104F300038FB002001F035FB002001F032FB00209F
:104F400001F02FFB002001F02CFB002001F029FBD9
:104F5000002001F026FB002001F023FB002001F0DF
:104F600020FB002001F01DFB002001F01AFBF020C7
:104F700001F023FB002001F014FB502001F011FB95
:104F8000002001F00EFB002001F00BFB002001F0DF
:104F900008FBF32001F011FB002001F002FBF920D7
:104FA00001F00BFB062001F0FCFA102001F0F9FAE9
:104FB000292001F0F6FA002001F0F3FA3A2001F07E
:104FC000FCFA552001F0EDFA112001F0F6FA642008
:104FD00004F082F9292001F0F0FA352001F0EDFA11
:104FE000002001F0DEFA512001F0E7FAFF2001F085
:104FF000D8FA532001F0E1FA2C2001F0D2FA552022
:1050000001F0DBFA822001F0CCFA2C20FDE3B04263
:105010007ED155214FF4704001F0E6FAAA214FF2FB
:10502000010001F0E1FA52214FF2020001F0DCFA36
:1050300008214FF2030001F0D7FA4FF204030121D7
:10504000184601F0D1FA0D214FF4304001F0CCFAAE
:105050000D214BF2010001F0C7FA0D214BF20200C5
:1050600001F0C2FA34214FF4364001F0BDFA342188
:105070004BF2016001F0B8FA34214BF2026001F00A
:10508000B3FA0D214FF4314001F0AEFA0D214BF28D
:10509000011001F0A9FA0D214BF2021001F0A4FA5F
:1050A00034214FF4374001F09FFA34214BF2017064
:1050B00001F09AFA34214BF2027001F095FA0021C6
:1050C0004FF4324001F090FA00214BF2012001F040
:1050D0008BFA00214BF2022001F086FA24214FF4D2
:1050E000384001F081FA24214BF6010001F07CFAEE
:1050F00024214BF6020001F077FA01214FF43F40E2
:1051000001F072FA0F214FF4334001F06DFA00E024
:10511000FEE30F214BF2013001F066FA0F214BF252
:10512000023001F061FA34214FF4394001F05CFAA9
:1051300034214BF6011001F057FA34214BF60210DE
:1051400001F052FA08214FF4354001F04DFA0821E0
:105150004BF2015001F048FA08214BF2025001F0E5
:1051600043FA03214FF4424001F03EFA24214FF468
:105170003A4001F039FA24214BF6012001F034FACB
:1051800024214BF6022001F02FFA00214FF43C407D
:1051900001F02AFA78214BF6014001F025FA0021AE
:1051A0004BF6024001F020FA00214FF43D4001F09F
:1051B0001BFA78214BF6015001F016FA00214BF64C
:1051C000025001F011FA00214FF43E4001F00CFAB8
:1051D00064214BF6016001F007FA00214FF45140C1
:1051E00001F002FA33214DF2011001F0FDF9002126
:1051F0004DF2021001F0F8F934214DF2031001F0E4
:10520000F3F900214DF2041001F0EEF93A214DF2CC
:10521000051001F0E9F900214DF2061001F0E4F962
:105220004A214DF2071001F0DFF900214DF208107C
:1052300001F0DAF95C214DF2091001F0D5F90021F5
:105240004DF20A1001F0D0F981214DF20B1001F05E
:10525000CBF900214DF20C1001F0C6F9A6214DF258
:105260000D1001F0C1F900214DF20E1001F0BCF952
:10527000E5214DF20F1001F0B7F901214DF21010A8
:1052800001F0B2F913214DF2111001F0ADF9012135
:105290004DF2121001F0A8F954214DF2131001F053
:1052A000A3F901214DF2141001F09EF982214DF273
:1052B000151001F099F901214DF2161001F094F941
:1052C000CA214DF2171001F08FF902214DF218108A
:1052D00001F08AF900214DF2191001F085F902213F
:1052E0004DF21A1001F080F901214DF21B1001F06E
:1052F0007BF902214DF21C1001F076F934214DF2B8
:105300001D1001F071F902214DF21E1001F06CF92F
:1053100067214DF21F1001F067F902214DF22010B4
:1053200001F062F984214DF2211001F05DF90221B2
:105330004DF2221001F058F9A4214DF2231001F092
:1053400053F902214DF2241001F04EF9B7214DF22C
:10535000251001F049F902214DF2261001F044F91F
:10536000CF214DF2271001F03FF902214DF2281014
:1053700001F03AF9DE214DF2291001F035F9022150
:105380004DF22A1001F030F9F2214DF22B1001F00C
:105390002BF902214DF22C1001F026F9FE214DF2DD
:1053A0002D1001F021F903214DF22E1001F01CF90E
:1053B00010214DF22F1001F017F903214DF230109A
:1053C00001F012F933214DF2311001F00DF90321F2
:1053D0004DF2321001F008F96D214DF2331001F059
:1053E00003F900214FF4524001F0FEF833214DF251
:1053F000012001F0F9F800214DF2022001F0F4F84B
:1054000034214DF2032001F0EFF800214DF2042089
:1054100001F0EAF83A214DF2052001F0E5F800210B
:105420004DF2062001F0E0F84A214DF2072001F08C
:10543000DBF800214DF2082001F0D6F85C214DF296
:10544000092001F0D1F800214DF20A2001F0CCF83A
:1054500081214DF20B2001F0C7F800214DF20C2004
:1054600001F0C2F8A6214DF20D2001F0BDF8002197
:105470004DF20E2001F0B8F8E5214DF20F2001F0B9
:10548000B3F801214DF2102001F0AEF813214DF2D6
:10549000112001F0A9F801214DF2122001F0A4F829
:1054A00054214DF2132001F09FF801214DF21420F8
:1054B00001F09AF882214DF2152001F095F80121B2
:1054C0004DF2162001F090F8CA214DF2172001F09C
:1054D0008BF802214DF2182001F086F800214DF2E0
:1054E000192001F081F802214DF21A2001F07CF818
:1054F00001214DF21B2001F077F802214DF21C2012
:1055000001F072F834214DF21D2001F06DF80221F6
:105510004DF21E2001F068F867214DF21F2001F0C6
:1055200063F802214DF2202001F05EF884214DF253
:10553000212001F059F802214DF2222001F054F807
:10554000A4214DF2232001F04FF802214DF2242036
:1055500001F04AF8B7214DF2252001F045F802216B
:105560004DF2262001F040F8CF214DF2272001F026
:105570003BF802214DF2282001F036F8DE214DF2F1
:10558000292001F031F802214DF22A2001F02CF8F7
:10559000F2214DF22B2001F027F802214DF22C20B0
:1055A00001F022F8FE214DF22D2001F01DF803211B
:1055B0004DF22E2001F018F810214DF22F2001F0AD
:1055C00013F803214DF2302001F00EF833214DF293
:1055D000312001F009F803214DF2322001F004F8E6
:1055E0006D214DF2332000F0FFFF00214FF45340B6
:1055F00000F0FAFF33214DF2013000F0F5FF0021F9
:105600004DF2023000F0F0FF34214DF2033000F093
:10561000EBFF00214DF2043000F0E6FF3A214DF29D
:10562000053000F0E1FF00214DF2063000F0DCFF14
:105630004A214DF2073000F0D7FF00214DF208302B
:1056400000F0D2FF5C214DF2093000F0CDFF0021C7
:105650004DF20A3000F0C8FF81214DF20B3000F00E
:10566000C3FF00214DF20C3000F0BEFFA6214DF229
:105670000D3000F0B9FF00214DF20E3000F0B4FF04
:10568000E5214DF20F3000F0AFFF01214DF2103057
:1056900000F0AAFF13214DF2113000F0A5FF012107
:1056A0004DF2123000F0A0FF54214DF2133000F003
:1056B0009BFF01214DF2143000F096FF82214DF244
:1056C000153000F091FF01214DF2163000F08CFFF3
:1056D000CA214DF2173000F087FF02214DF2183039
:1056E00000F082FF00214DF2193000F07DFF022111
:1056F0004DF21A3000F078FF01214DF21B3000F01E
:1057000073FF02214DF21C3000F06EFF34214DF288
:105710001D3000F069FF02214DF21E3000F064FFE1
:1057200067214DF21F3000F05FFF02214DF2203063
:1057300000F05AFF84214DF2213000F055FF022184
:105740004DF2223000F050FFA4214DF2233000F042
:105750004BFF02214DF2243000F046FFB7214DF2FD
:10576000253000F041FF02214DF2263000F03CFFD1
:10577000CF214DF2273000F037FF02214DF22830C3
:1057800000F032FFDE214DF2293000F02DFF022122
:105790004DF22A3000F028FFF2214DF22B3000F0BC
:1057A00023FF02214DF22C3000F01EFFFE214DF2AE
:1057B0002D3000F019FF03214DF22E3000F014FFC0
:1057C00010214DF22F3000F00FFF03214DF2303049
:1057D00000F00AFF33214DF2313000F005FF0321C4
:1057E0004DF2323000F000FF6D214DF2333000F009
:1057F000FBFE00214FF4544000F0F6FE33214DF241
:10580000014000F0F1FE002100E082E34DF2024091
:1058100000F0EAFE34214DF2034000F0E5FE0021E5
:105820004DF2044000F0E0FE3A214DF2054000F058
:10583000DBFE00214DF2064000F0D6FE4A214DF27B
:10584000074000F0D1FE00214DF2084000F0CCFEF0
:105850005C214DF2094000F0C7FE00214DF20A40E4
:1058600000F0C2FE81214DF20B4000F0BDFE002190
:105870004DF20C4000F0B8FEA6214DF20D4000F0B4
:10588000B3FE00214DF20E4000F0AEFEE5214DF2D8
:105890000F4000F0A9FE01214DF2104000F0A4FEDF
:1058A00013214DF2114000F09FFE01214DF21240F4
:1058B00000F09AFE54214DF2134000F095FE0121B4
:1058C0004DF2144000F090FE82214DF2154000F0A0
:1058D0008BFE01214DF2164000F086FECA214DF2EA
:1058E000174000F081FE02214DF2184000F07CFECE
:1058F00000214DF2194000F077FE02214DF21A40CE
:1059000000F072FE01214DF21B4000F06DFE00E040
:1059100002E302214DF21C4000F066FE34214DF2FC
:105920001D4000F061FE02214DF21E4000F05CFEC1
:1059300067214DF21F4000F057FE02214DF220403A
:1059400000F052FE84214DF2214000F04DFE022174
:105950004DF2224000F048FEA4214DF2234000F019
:1059600043FE02214DF2244000F03EFEB7214DF2ED
:10597000254000F039FE02214DF2264000F034FEB1
:10598000CF214DF2274000F02FFE02214DF228409A
:1059900000F02AFEDE214DF2294000F025FE022112
:1059A0004DF22A4000F020FEF2214DF22B4000F093
:1059B0001BFE02214DF22C4000F016FEFE214DF29E
:1059C0002D4000F011FE03214DF22E4000F00CFEA0
:1059D00010214DF22F4000F007FE03214DF2304020
:1059E00000F002FE33214DF2314000F0FDFD0321B5
:1059F0004DF2324000F0F8FD6D214DF2334000F0E1
:105A0000F3FD00214FF4554000F0EEFD33214DF23F
:105A1000015000F0E9FD00214DF2025000F0E4FDDC
:105A200034214DF2035000F0DFFD00214DF204500F
:105A300000F0DAFD3A214DF2055000F0D5FD0021CD
:105A40004DF2065000F0D0FD4A214DF2075000F013
:105A5000CBFD00214DF2085000F0C6FD5C214DF257
:105A6000095000F0C1FD00214DF20A5000F0BCFDCC
:105A700081214DF20B5000F0B7FD00214DF20C508A
:105A800000F0B2FDA6214DF20D5000F0ADFD002159
:105A90004DF20E5000F0A8FDE5214DF20F5000F040
:105AA000A3FD01214DF2105000F09EFD13214DF297
:105AB000115000F099FD01214DF2125000F094FDBB
:105AC00054214DF2135000F08FFD01214DF214507E
:105AD00000F08AFD82214DF2155000F085FD012174
